S01B000044657369676E204C61622031205061727420322E7372656326
S11300000C943E000C945B000C945B000C945B001D
S11300100C945B000C945B000C945D000C945B00EE
S11300200C945B000C945B000C945B000C945B00E0
S11300300C945B000C945B000C945B000C945B00D0
S11300400C945B000C945B000C945B000C945B00C0
S11300500C945B000C945B000C945B000C945B00B0
S11300600C945B000C945B000C945B000C945B00A0
S11300700C945B000C945B000C945B0011241FBE79
S1130080CFEFD0E1DEBFCDBF11E0A0E0B1E0ECE204
S1130090F2E002C005900D92A035B107D9F721E036
S11300A0A0E5B1E001C01D92A635B207E1F70E94B8
S11300B08A000C9414010C9400001F920F920FB646
S11300C00F9211242F933F934F935F936F937F93DA
S11300D08F939F93AF93BF93EF93FF93309B05C090
S11300E08CE191E00E94E40004C081E291E00E946E
S11300F0E400FF91EF91BF91AF919F918F917F9118
S11301006F915F914F913F912F910F900FBE0F9080
S11301101F9018950E94C60084B1886184B987B184
S113012017B884B5836A84BD85B5826085BD80E4D3
S113013087BD8FEB88BD82E080938100E8E6F0E024
S1130140808184608083EDE6F0E08081816080833B
S113015078942FEF8FEF9CE2215080409040E1F79C
S113016000C00000FFCFE0ECF0E0908195FFFDCFF0
S11301708093C60080E090E00895E0ECF0E0808198
S11301808823ECF78091C60090E00895E1ECF0E05C
S1130190808188618083E2ECF0E0808186608083E6
S11301A01092C50087E08093C400E0E5F1E08EE0A2
S11301B091E09383828380E091E09183808385E260
S11301C091E00E94E40008950F931F93CF93DF936F
S11301D0E0915201F0915301238121FF1BC08C0156
S11301E0D0E0C0E0F80181918F01609152017091DB
S11301F05301DB011896ED91FC911997882331F096
S11302000995892B79F3DFEFCFEFECCF8AE00995DD
S1130210892B19F08FEF9FEF02C08D2F9C2FDF9158
S10F0220CF911F910F910895F894FFCF27
S113022C00000001000000000000BD000000000000
S113023C000200000000B3000000000048494748D9
S113024C004C4F570041746D65676136343470202F
S113025C5541525420436F6E6E656374696F6E2002
S113026C45737461626C69736865642E2E2E0A0082
S9030000FC
