:100000000C943E000C945B000C945B000C945B0021
:100010000C945B000C945B000C945D000C945B00F2
:100020000C945B000C945B000C945B000C945B00E4
:100030000C945B000C945B000C945B000C945B00D4
:100040000C945B000C945B000C945B000C945B00C4
:100050000C945B000C945B000C945B000C945B00B4
:100060000C945B000C945B000C945B000C945B00A4
:100070000C945B000C945B000C945B0011241FBE7D
:10008000CFEFD0E1DEBFCDBF11E0A0E0B1E0E8EB03
:10009000FCE002C005900D92A439B107D9F721E028
:1000A000A4E9B1E001C01D92AF39B207E1F70E94A7
:1000B00034010C945A060C9400001F920F920FB654
:1000C0000F9211242F923F924F925F926F927F92E4
:1000D0008F929F92AF92BF92CF92DF92EF92FF9258
:1000E0000F931F932F933F934F935F936F937F9340
:1000F0008F939F93AF93BF93CF93DF93EF93FF9330
:10010000309B7FC080910001882381F08091840022
:100110002091850090E0922B909398018093970115
:100120001092000181E0809396017BC0809196013E
:10013000811161C02090840080918500312C382A83
:10014000C0919701D09198016101CC1ADD0A00910C
:100150009401109195017801EC1AFD0A4601A12C39
:10016000B12C60E070E28CE190E0A50194010E9466
:100170002A033F932F93B70180E090E00E942F0263
:100180002B013C01C501B4010E942F029B01AC016F
:10019000C301B2010E948E0120E030E048EC52E43D
:1001A0000E94BD020E9400027F936F93FF92EF9224
:1001B0001F930F93DF92CF923F922F92DF93CF93B3
:1001C0008DE191E09F938F930E944C0381E0809397
:1001D00000019FEF2FE780E7915020408040E1F73A
:1001E00000C000008DB79EB740960FB6F8949EBF32
:1001F0000FBE8DBF16C081E0809300011092960162
:1002000010C080919601882361F080918400209134
:10021000850090E0922B9093950180939401109229
:100220009601FF91EF91DF91CF91BF91AF919F9197
:100230008F917F916F915F914F913F912F911F917E
:100240000F91FF90EF90DF90CF90BF90AF909F9075
:100250008F907F906F905F904F903F902F900F9076
:100260000FBE0F901F9018950E94700184B1886195
:1002700084B987B117B884B5836A84BD85B58260B7
:1002800085BD80E487BD8FEB88BD82E080938100CF
:10029000E8E6F0E0808184608083EDE6F0E0808134
:1002A0008160808378942FEF8FEF9CE22150804013
:1002B0009040E1F700C00000FFCFE0ECF0E090815B
:1002C00095FFFDCF8093C60080E090E00895E0ECBC
:1002D000F0E080818823ECF78091C60090E00895DB
:1002E000E1ECF0E0808188618083E2ECF0E08081E5
:1002F000866080831092C50087E08093C400E9E99E
:10030000F1E08FE091E09383828381E091E091833B
:10031000808388E691E00E94620308950E94A20112
:100320000C9483020E947C0258F00E94750240F0F7
:1003300029F45F3F29F00C946C0251110C94B70220
:100340000C9472020E94940268F39923B1F355232E
:1003500091F3951B550BBB27AA27621773078407D8
:1003600038F09F5F5F4F220F331F441FAA1FA9F36E
:1003700035D00E2E3AF0E0E832D091505040E6955C
:10038000001CCAF72BD0FE2F29D0660F771F881FBD
:10039000BB1F261737074807AB07B0E809F0BB0BB0
:1003A000802DBF01FF2793585F4F3AF09E3F5105C4
:1003B00078F00C946C020C94B7025F3FE4F3983E23
:1003C000D4F3869577956795B795F7959F5FC9F7AD
:1003D000880F911D9695879597F90895E1E0660F2E
:1003E000771F881FBB1F621773078407BA0720F0A7
:1003F000621B730B840BBA0BEE1F88F7E095089510
:100400000E949C0288F09F5798F0B92F9927B75106
:10041000B0F0E1F0660F771F881F991F1AF0BA95A8
:10042000C9F714C0B13091F00E94B602B1E008954E
:100430000C94B602672F782F8827B85F39F0B93F40
:10044000CCF3869577956795B395D9F73EF490955B
:100450008095709561957F4F8F4F9F4F0895E894D9
:1004600009C097FB3EF490958095709561957F4FFC
:100470008F4F9F4F9923A9F0F92F96E9BB279395AA
:10048000F695879577956795B795F111F8CFFAF4BA
:10049000BB0F11F460FF1BC06F5F7F4F8F4F9F4FEB
:1004A00016C0882311F096E911C0772321F09EE849
:1004B000872F762F05C0662371F096E8862F70E0AF
:1004C00060E02AF09A95660F771F881FDAF7880F89
:1004D0009695879597F9089597F99F6780E870E05A
:1004E00060E008959FEF80EC089500240A941616AA
:1004F000170618060906089500240A941216130612
:10050000140605060895092E0394000C11F488239F
:1005100052F0BB0F40F4BF2B11F460FF04C06F5FBB
:100520007F4F8F4F9F4F089557FD9058440F551F91
:1005300059F05F3F71F04795880F97FB991F61F065
:100540009F3F79F087950895121613061406551FDC
:10055000F2CF4695F1DF08C0161617061806991F48
:10056000F1CF86957105610508940895E894BB273D
:1005700066277727CB0197F908950E94D0020C9443
:1005800083020E94750238F00E947C0220F09523BD
:1005900011F00C946C020C94720211240C94B702AA
:1005A0000E94940270F3959FC1F3950F50E0551F80
:1005B000629FF001729FBB27F00DB11D639FAA27B8
:1005C000F00DB11DAA1F649F6627B00DA11D661F07
:1005D000829F2227B00DA11D621F739FB00DA11D28
:1005E000621F839FA00D611D221F749F3327A00DE2
:1005F000611D231F849F600D211D822F762F6A2F7E
:1006000011249F5750409AF0F1F088234AF0EE0FE2
:10061000FF1FBB1F661F771F881F91505040A9F70F
:100620009E3F510580F00C946C020C94B7025F3F22
:10063000E4F3983ED4F3869577956795B795F7954B
:10064000E7959F5FC1F7FE2B880F911D96958795C3
:1006500097F90895A1E21A2EAA1BBB1BFD010DC03C
:10066000AA1FBB1FEE1FFF1FA217B307E407F50762
:1006700020F0A21BB30BE40BF50B661F771F881F3E
:10068000991F1A9469F760957095809590959B01D4
:10069000AC01BD01CF010895A0E0B0E0E2E5F3E0D8
:1006A0000C943306AE014B5F5F4FFA01619171917B
:1006B000AF0180919B0190919C010E949203E2E026
:1006C0000C944F060F931F93CF93DF93E0919B0100
:1006D000F0919C01238121FF1BC08C01D0E0C0E080
:1006E000F80181918F0160919B0170919C01DB0168
:1006F0001896ED91FC911997882331F00995892B73
:1007000079F3DFEFCFEFECCF8AE00995892B19F071
:100710008FEF9FEF02C08D2F9C2FDF91CF911F9104
:100720000F910895ABE0B0E0E8E9F3E00C94230604
:100730006C017B018A01FC0117821682838181FF93
:10074000CCC1CE0101963C01F6019381F70193FDE6
:10075000859193FF81917F01882309F4BAC1853285
:1007600039F493FD859193FF81917F01853229F4BE
:10077000B60190E00E948905E7CF912C212C312C05
:10078000FFE1F315D8F08B3279F038F4803279F04C
:100790008332A1F4232D20611DC08D3261F080339E
:1007A00069F4232D216016C0832D8260382EE32D3D
:1007B000E4603E2E2AC0F32DF8601DC037FC2DC02A
:1007C00020ED280F2A3040F08E32B9F436FC81C17A
:1007D000232D2064322E19C036FE06C08AE0989E72
:1007E000200D1124922E11C0EAE02E9E200D11241E
:1007F000222EF32DF0623F2E08C08C3621F4832D7B
:100800008068382E02C0883641F4F70193FD859147
:1008100093FF81917F018111B3CF982F9F7D9554D4
:10082000933028F40C5F1F4F9FE399830DC08336EC
:1008300031F0833771F0833509F059C021C0F801D8
:10084000808189830E5F1F4F88248394912C5301EC
:1008500013C02801F2E04F0E511CF801A080B180B6
:1008600036FE03C0692D70E002C06FEF7FEFC50157
:100870000E947E054C018201F32DFF773F2E16C0AA
:10088000280122E0420E511CF801A080B18036FE02
:1008900003C0692D70E002C06FEF7FEFC5010E94B9
:1008A00073054C01F32DF0683F2E820133FC1BC011
:1008B000822D90E088169906B0F4B60180E290E0AF
:1008C0000E9489052A94F4CFF50137FC859137FE03
:1008D00081915F01B60190E00E94890521102A9460
:1008E00021E0821A91088114910471F7E8C08436DE
:1008F00011F0893641F5F80137FE07C0608171813A
:10090000828193810C5F1F4F08C060817181072E27
:10091000000C880B990B0E5F1F4FF32DFF763F2EB7
:1009200097FF09C090958095709561957F4F8F4F87
:100930009F4FF0683F2E2AE030E0A3010E94C505DA
:10094000882E861845C0853731F4232D2F7EB22E90
:100950002AE030E025C0932D997FB92E8F36C1F063
:1009600018F4883579F0B5C0803719F0883721F050
:10097000B0C0E92FE061BE2EB4FE0DC0FB2DF460C7
:10098000BF2E09C034FE0AC0292F2660B22E06C031
:1009900028E030E005C020E130E002C020E132E094
:1009A000F801B7FE07C060817181828193810C5F7D
:1009B0001F4F06C06081718180E090E00E5F1F4F85
:1009C000A3010E94C505882E8618FB2DFF773F2EB8
:1009D00036FE0DC0232D2E7FA22E891458F434FE2E
:1009E0000BC032FC09C0832D8E7EA82E05C0B82C0A
:1009F000A32C03C0B82C01C0B92CA4FE0FC0FE016B
:100A0000E80DF11D8081803321F49A2D997EA92E65
:100A100009C0A2FE06C0B394B39404C08A2D8678A0
:100A200009F0B394A3FC11C0A0FE06C0B21488F470
:100A3000280C922C9B180EC0B21460F4B60180E210
:100A400090E00E948905B394F7CFB21418F42B18E4
:100A500002C0982C212CA4FE10C0B60180E390E0C7
:100A60000E948905A2FE17C0A1FC03C088E790E0A0
:100A700002C088E590E0B6010CC08A2D867859F056
:100A8000A1FE02C08BE201C080E2A7FC8DE2B601AC
:100A900090E00E948905891438F4B60180E390E063
:100AA0000E9489059A94F7CF8A94F301E80DF11D0D
:100AB0008081B60190E00E9489058110F5CF222047
:100AC00009F442CEB60180E290E00E9489052A94A2
:100AD000F6CFF6018681978102C08FEF9FEF2B96AC
:100AE000E2E10C943F06FC0105906150704001105A
:100AF000D8F7809590958E0F9F1F0895FC01615047
:100B0000704001900110D8F7809590958E0F9F1F2F
:100B100008950F931F93CF93DF93FB01238121FD52
:100B200003C08FEF9FEF2CC022FF16C04681578174
:100B3000248135814217530744F4A081B1819D017E
:100B40002F5F3F4F318320838C93268137812F5F26
:100B50003F4F3783268314C08B01EC01FB010084D7
:100B6000F185E02D0995892BE1F6D80116968D9136
:100B70009C911797019617969C938E931697CE018A
:100B8000DF91CF911F910F910895FA01AA27283084
:100B900051F1203181F1E8946F936E7F6E5F7F4F4A
:100BA0008F4F9F4FAF4FB1E03ED0B4E03CD0670FC6
:100BB000781F891F9A1FA11D680F791F8A1F911D19
:100BC000A11D6A0F711D811D911DA11D20D009F469
:100BD00068943F912AE0269F11243019305D3193AB
:100BE000DEF6CF010895462F4770405D4193B3E094
:100BF0000FD0C9F7F6CF462F4F70405D4A3318F03B
:100C0000495D31FD4052419302D0A9F7EACFB4E0EB
:100C1000A6959795879577956795BA95C9F70097A3
:100C20006105710508959B01AC010A2E0694579544
:100C3000479537952795BA95C9F7620F731F841F9B
:100C4000951FA01D08952F923F924F925F926F9231
:100C50007F928F929F92AF92BF92CF92DF92EF924C
:100C6000FF920F931F93CF93DF93CDB7DEB7CA1BCD
:100C7000DB0B0FB6F894DEBF0FBECDBF09942A88F8
:100C8000398848885F846E847D848C849B84AA84A0
:100C9000B984C884DF80EE80FD800C811B81AA812D
:100CA000B981CE0FD11D0FB6F894DEBF0FBECDBFF8
:080CB000ED010895F894FFCF57
:100CB80001000000010000000000006701000000C2
:100CC800000002000000005D01000000000A74310D
:100CD800203D2025750A7432203D2025750A64655B
:100CE8006C74615F74203D2025750A745F686967BC
:100CF80068203D2025750A745F64757479203D204D
:100D080025750A64757479203D2025750A66726513
:100D180071203D2025750A0041746D656761363480
:100D28003470205541525420436F6E6E6563746968
:100D38006F6E2045737461626C69736865642E2EEA
:040D48002E0A00006F
:00000001FF
